:100000000C9457010C94BB0B0C94E80B0C947F01DF
:100010000C947F010C947F010C947F010C947F0160
:100020000C947F010C947F010C947F010C947F0150
:100030000C947F010C947F010C947F010C947F0140
:100040000C94D60C0C947F010C94F50E0C94270F95
:100050000C947F010C947F010C947F010C947F0120
:100060000C947F010C947F012B03F420418900360E
:10007000400A1D806010622C00082B03F420418987
:100080000036400A1D806010622C33082B03F420D8
:1000900041890036400A1D806010622C22081B0333
:1000A000416027520007400A1E806013A92C223AA3
:1000B0001D03A1204EA50013400A1E806027522C6C
:1000C00022481E03D0009D490045400A2080604E12
:1000D000A52C22482B033402752507FF400A1B80FC
:1000E000609D492C220F020368013A9304D5400A0F
:1000F0001E806009D50C221F06034501D7DC076E60
:10010000400A2D80600EBF0C222E8A0360015555D7
:1001100002AD400A50806020000C22C82B03A1E0F1
:1001200010C70009400A1D806004322C22042703F6
:10013000A1E010C70006400A1D806004322C22078F
:100140002B03F42041890036400A1D806010622C88
:1001500023081B03416027520007400A1E806013DA
:10016000A92C233A1D03A1204EA50013400A1E808E
:100170006027522C23481E03D0009D490045400AA9
:100180002080604EA52C23482B033402752507FFE1
:10019000400A1B80609D492C230F020368013A939B
:1001A00004D5400A1E806009D50C231F06034501B3
:1001B000D7DC076E400A2D80600EBF0C232E8A0309
:1001C0006001555502AD400A50806020000C23C8E4
:1001D000510368003A93013D2C1128806009D52C09
:1001E0002108C803392068DC006B2A082A806013C4
:1001F000A92C2108C8039C00D1B700D42904298068
:100200006027522C2108B8039C00D1B700D4288263
:100210002980604EA52C2108A8039C00D1B700D4EA
:1002200028412980609D492C210898039C00D1B762
:1002300000D4282029806009D50C21089803960055
:10024000DA7400DC281F2980600A3D0C21080000B8
:100250000008000201000003040700000000000085
:100260000000010204081020408001020408102050
:10027000010204081020040404040404040402021B
:100280000202020203030303030300000000230031
:100290002600290000000000250028002B00000097
:1002A0000000240027002A000D034A0B570F1124D9
:1002B0001FBECFEFD8E0DEBFCDBF12E0A0E0B1E0BF
:1002C000E4E1F4E202C005900D92AA35B107D9F736
:1002D00024E0AAE5B2E001C01D92A03BB207E1F71D
:1002E00012E0CEEAD2E004C02297FE010E947E1105
:1002F000C83AD107C9F70E94E0100C9408120C9478
:10030000000066E371E083E194E00E94F00D8091CB
:100310002C010E94AD0C4AE050E0BC0183E194E066
:100320000E94B20E61E471E083E194E00E94F00D5E
:10033000809122010E94AD0C4AE050E0BC0183E1B3
:1003400094E00E94B20E6AE471E083E194E00E94BE
:10035000F00D809118010E94AD0C4AE050E0BC0104
:1003600083E194E00C94B20E60E080912C010E9435
:100370003E0C60E0809122010E943E0C60E0809182
:1003800018010E943E0C60E080910E010E943E0C1C
:1003900060E0809104010E943E0C26E040E855E2B6
:1003A00060E070E083E194E00E947D1062E571E01E
:1003B00083E194E00E94FD0D8EEA92E00E94B60572
:1003C000882319F062E671E002C067E771E083E11B
:1003D00094E00C94FD0D80912C010E94AD0C0197CE
:1003E000A9F4809122010E94AD0C009759F420914C
:1003F000240130912501232B29F0209127012F5F23
:1004000020932701909325018093240108950E9451
:10041000EB0185E692E00E94400380E792E00E94B3
:1004200040038091AD02882321F08AE592E00C948C
:1004300040030895AF92BF92CF92DF92EF92FF9266
:100440000F931F93CF93DF9300D0CDB7DEB720E09B
:1004500042E0BC018EEA92E00E94AC03882389F15D
:1004600082E38A83A12CB12CC12CD12CE12CF12C5C
:100470008E010F5F1F4F20ED37E0AE014E5F5F4FE3
:100480006BE772E08EEA92E00E9423058823B1F0C8
:100490006BE871E083E194E00E94F00D40E150E0F0
:1004A000698183E194E00E94D70E6BE072E083E102
:1004B00094E00E94F00D6BE772E005C06FE971E017
:1004C00002C063ED71E083E194E00E94FD0D0F90A6
:1004D0000F90DF91CF911F910F91FF90EF90DF90E0
:1004E000CF90BF90AF900895CF93DF9365EE71E00A
:1004F00083E194E00E94F00DC7E2D1E04AE050E0D1
:10050000688183E194E00E94DE0E86E291E00E9421
:100510001A021882DF91CF910895CF92DF92EF9265
:10052000FF920F931F93CF93DF93EC016B017A013E
:1005300088810E94AD0C8C018C159D05B1F48A81D7
:100540009B818017910789F06CEF71E083E194E063
:100550000E94F00D688179814AE050E083E194E0E7
:100560000E94B20ECE01069618C00E151F05B9F4F2
:100570008A819B818017910791F065E072E083E1A9
:1005800094E00E94F00D688179814AE050E083E1B7
:1005900094E00E94B20ECE0108960E941A021B83BC
:1005A0000A83DF91CF911F910F91FF90EF90DF9021
:1005B000CF90089540E050E061E070E088E191E084
:1005C0000E948D0240E050E061E070E08EE091E03A
:1005D0000E948D0240E050E061E070E084E091E034
:1005E0000E948D0241E050E060E070E08CE291E01A
:1005F0000E948D0280912C010E94AD0C019761F444
:1006000010921B0110921A01109211011092100108
:100610001092070110920601089520E04AE061E07F
:100620008EEA92E00E946D0324E732E048EE53E048
:1006300060E070E080E792E00E9432032AED32E051
:1006400048EE53E060E070E085E692E00E943203FD
:1006500021E831E048EE53E060E070E08AE592E0A6
:100660000C943203FC0181E0808311821282138298
:100670001482458356836783708732872187089564
:100680000F931F93CF93DF93EC018881882301F1AF
:100690000E94200D09811A812B813C81601B710B06
:1006A000820B930B0D811E812F8138856017710796
:1006B0008207930768F00E94200D69837A838B83F9
:1006C0009C83E985FA85DF91CF911F910F91099461
:1006D000DF91CF911F910F910895CF93DF93EC019C
:1006E0000E94890582E192E099838883FE01E85B9C
:1006F000FF4F1182108232961082319688EC90E082
:1007000091838083C35BDF4F83E08883DF91CF9148
:1007100008950F931F93CF93DF9300D0CDB7DEB72B
:100720008C014A830E94F10960E8C8010E94F50922
:1007300081E289832A8141E0BE016F5F7F4FC8015A
:100740000E94CB05C8010E94F1070F900F90DF9126
:10075000CF911F910F9108952F923F924F925F92E8
:100760006F927F928F929F92AF92BF92CF92DF92C1
:10077000EF92FF920F931F93CF93DF93CDB7DEB726
:100780002B970FB6F894DEBF0FBECDBF9B878A872D
:100790002B01642E022FFC01E65BFF4F10811F5FCF
:1007A000108380E02A853B85235B3F4F3A83298372
:1007B0002A843B8438E4230E311CEA85FB85E55B03
:1007C000FF4FFC83EB832A853B85295B3F4F3E83AC
:1007D0002D8377247394780EE981FA81908198179C
:1007E00008F490C0612F8A859B850E94F10960E022
:1007F0008A859B850E94F509202F462DB2018A85A6
:100800009B850E94CB058A859B850E94F1070F3F3F
:1008100011F481E078C031E0371530F4F1018081C6
:1008200091810196918380830E94200D6B017C0150
:10083000EB81FC81A080B18020E031E040E050E01D
:1008400060E070E0CB010E9413119B01AC01D50167
:100850000E94711120E031E040E050E00E9452110E
:100860004501820E931EA12CB12C0E94200D6C1903
:100870007D098E099F09681579058A059B0508F091
:100880003FC08A859B850E94E407882371F38A858F
:100890009B850E94DD078A859B850E94FC09482F65
:1008A0008A859B8549870E94F909282F8A859B851F
:1008B00028870E94FF09682F8A859B856F830E9485
:1008C000020A498528856F8140130AC0ED81FE81A7
:1008D0009081291305C087FF03C0611709F499CFE0
:1008E00087FDC3CFEA85FB85E40FF11DE25BFF4F77
:1008F00080816813BACF8A859B850E948903B5CF12
:10090000872D67CF80E02B960FB6F894DEBF0FBE21
:10091000CDBFDF91CF911F910F91FF90EF90DF90AE
:10092000CF90BF90AF909F908F907F906F905F908F
:100930004F903F902F9008952F923F924F925F9249
:100940006F927F928F929F92AF92BF92CF92DF92DF
:10095000EF92FF920F931F93CF93DF93CDB7DEB744
:1009600028970FB6F894DEBF0FBECDBF5C0119010A
:100970002801470136014F8358876D837E830E948B
:10098000E4074F8158856D817E81882331F1CE0146
:1009900001966C01FE0132967F018E010D5F1F4FA3
:1009A0009E012C5F3F4FC5010E94E6058823A9F0F8
:1009B000898187FD12C08B818F3F29F04C816A812C
:1009C000C5010E9489038A819C81A90EB11CF50191
:1009D000E25BFF4F2081821302C080E01BC0211424
:1009E000310411F0F10190834114510419F09B81FD
:1009F000F20190838114910411F0F4018083611459
:100A0000710419F09981F3019083F501E25BFF4FC6
:100A1000808381E028960FB6F894DEBF0FBECDBF6D
:100A2000DF91CF911F910F91FF90EF90DF90CF90CA
:100A3000BF90AF909F908F907F906F905F904F90FE
:100A40003F902F9008952F923F924F925F926F9216
:100A50007F928F929F92AF92BF92CF92DF92EF924E
:100A6000FF920F931F93CF93DF93CDB7DEB72C97F1
:100A70000FB6F894DEBF0FBECDBF9A8389831B01EA
:100A80005C874B8749011C830B83FE82ED82D886ED
:100A9000CF82BA86A9860E94200D2B013C01A12C91
:100AA000B12C0E94200D64197509860997096815F3
:100AB00079058A059B0598F4C984DA84EF80F88467
:100AC0000D811E812B813C814B855C85B101898123
:100AD0009A810E949C04882321F381E001C080E078
:100AE0002C960FB6F894DEBF0FBECDBFDF91CF912D
:100AF0001F910F91FF90EF90DF90CF90BF90AF903C
:100B00009F908F907F906F905F904F903F902F902D
:100B100008951F93CF93DF93EC01162F642F422F7C
:100B200022E034E00E9427068AE192E099838883DC
:100B3000C95BDF4F1883DF91CF911F9108950F9309
:100B40001F93CF93DF93EC01462F8C01095B1F4F5E
:100B5000F80160836FE30E947306F8016081CE01A3
:100B6000DF91CF911F910F910C94ED091F93CF93BB
:100B7000DF93EC010E940C0A182F882339F0FE0144
:100B8000E95BFF4F6081CE010E949F05812FDF91BD
:100B9000CF911F910895EF92FF920F931F93CF93E0
:100BA000DF931F92CDB7DEB77C018B01622F4983A3
:100BB0000E94E9094981B801C7010F90DF91CF91E7
:100BC0001F910F91FF90EF900C94DD08AF92BF92B0
:100BD000CF92DF92EF92FF920F931F93CF93DF9309
:100BE000EC0159010E94F607882309F1A114B10410
:100BF00029F0CE010E94FC09F50180830115110541
:100C000029F0CE010E94F909F8018083E114F10472
:100C100029F0CE010E94FF09F7018083C114D1049D
:100C200041F0CE010E94020AF601808302C080E0FA
:100C300001C081E0DF91CF911F910F91FF90EF9064
:100C4000DF90CF90BF90AF90089508950895FC0174
:100C500082E292E0918380836683478381E085838B
:100C60001482DF01AE5BBF4F11961C921E92129749
:100C700011961C921E92149611961C921E9233830A
:100C8000228381E090E09287818708950F931F93DC
:100C9000CF93DF93EC01062F1FB7F89460E08E81AD
:100CA0000E94770C8A819B81DC01ED91FC91602F81
:100CB0006F770190F081E02D09958A819B81DC019D
:100CC000ED91FC910190F081E02D60E00995082FF5
:100CD00061E08E810E94770C1FBF802FDF91CF9142
:100CE0001F910F910895EF92FF920F931F93CF934F
:100CF000DF931F92CDB7DEB77C01062F1FB7F894A4
:100D000060E0DC0116968C9149830E94770CF70114
:100D100082819381DC01ED91FC91602F60680190EC
:100D2000F081E02D0995F70182819381DC01ED913D
:100D3000FC910190F081E02D4981642F099561E0DB
:100D4000F70186810E94770C1FBF0F90DF91CF9132
:100D50001F910F91FF90EF90089540E867E00E9487
:100D6000730661E070E080E090E00C944F0DCF924C
:100D7000DF92EF92FF920F931F93CF93DF9300D0F8
:100D8000CDB7DEB78C01D62EF22EEFB6F89460E028
:100D9000DC0116968C9149835A830E94770CF801E6
:100DA00082819381DC01ED91FC916D2D6F77019033
:100DB000F081E02D09954981C42E5A81D52EF40E7B
:100DC000FC1479F0F80182819381DC01ED91FC91B2
:100DD0000190F081E02D60E00995F60181936F01AB
:100DE000EFCF61E0D80116968C910E94770CEFBE90
:100DF0000F900F90DF91CF911F910F91FF90EF9087
:100E0000DF90CF900895CF92DF92EF92FF920F93F1
:100E10001F93CF93DF9300D0CDB7DEB78C01D62ED2
:100E2000F22EEFB6F89460E0DC0116968C914983BF
:100E30005A830E94770CF80182819381DC01ED9145
:100E4000FC916D2D60680190F081E02D099549813C
:100E5000C42E5A81D52EF40EFC1471F0F801828153
:100E60009381D6016D916D01DC01ED91FC910190B2
:100E7000F081E02D0995F0CF61E0F80186810E94B4
:100E8000770CEFBE0F900F90DF91CF911F910F91D4
:100E9000FF90EF90DF90CF90089562E00C944606AB
:100EA000462F67E00C947306CF93DF93EC018C819F
:100EB000813039F06D816460CE010E94500781E07D
:100EC0008C83DF91CF910895462F6DE60C947306C5
:100ED0000F931F93CF93DF93EC018B01FB014081B4
:100EE0006CE10E947306F80141816FE1CE010E941E
:100EF0007306A8014E5F5F4F26E060E2CE010E94BC
:100F00000307A801485F5F4F23E06CE2CE010E9417
:100F10000307F801438568E5CE010E947306F801D6
:100F2000448569E6CE010E947306A801435F5F4FC6
:100F300025E06EE6CE01DF91CF911F910F910C94C9
:100F400003070F931F93CF93DF93CDB7DEB762975D
:100F50000FB6F894DEBF0FBECDBF8C016C317105AA
:100F6000B8F482E1869F9001879F300D11242859A3
:100F70003F4F42E150E0B901CE0101960E94EE11CF
:100F8000BE016F5F7F4FC8010E94680781E001C00A
:100F900080E062960FB6F894DEBF0FBECDBFDF9142
:100FA000CF911F910F910895462F64E30C9473061F
:100FB000242FAB0166E30C9403072FB7F894FC01D0
:100FC000138616AE2FBF0895CF93DF93EC018EAD3D
:100FD000811103C0CE010E9454078EADDF91CF91E5
:100FE0000895FC0124812230E1F30895DF92EF920D
:100FF000FF920F931F93CF93DF93EC017B018A0144
:101000000E94E4078823C1F0DFB6F8948B85F801CD
:101010009081891710F48B858083F801408150E01E
:10102000BE01645F7F4FC7010E94F711CE010E948D
:10103000DD07DFBE81E001C080E0DF91CF911F912D
:101040000F91FF90EF90DF9008952FB7F894FC0177
:10105000138617AE2FBF08950F931F93CF93DF937F
:10106000EC01142F8B8550E09A01280F311D23339A
:10107000310578F40FB7F8948B8590E00C968C0FBF
:101080009D1F0E94F7118B85810F8B870FBF81E019
:1010900001C080E0DF91CF911F910F9108950F93D0
:1010A0001F93CF93DF9300D01F92CDB7DEB78C0193
:1010B0004B8369837A830E9425084B8169817A81F9
:1010C000442351F0C8010F900F900F90DF91CF9102
:1010D0001F910F910C942C0880E00F900F900F90AF
:1010E000DF91CF911F910F9108951F93CF93DF93BD
:1010F000EC019FAD8B859817A0F41B858FAD181B55
:101100001C3308F01BE34FAD50E0445F5F4F4C0FC2
:101110005D1F212F6FE7CE010E9403078FAD810F66
:101120008FAFDF91CF911F910895FC0183850895C2
:10113000CF93DF93EC0143E068E00E94730640E048
:1011400068E0CE01DF91CF910C947306CF93DF93CB
:10115000EC0142E068E00E94730640E068E0CE01E6
:10116000DF91CF910C947306CF93DF93EC018C81C8
:10117000823061F06D816860CE010E94500782E08C
:101180008C83CE01DF91CF910C94A608DF91CF9193
:101190000895CF93DF93EC010E9475084B856EE3B1
:1011A000CE010E947306CE01DF91CF910C94B4085A
:1011B000FC01148217AE0C94C908EF92FF921F93A2
:1011C000CF93DF9300D01F92CDB7DEB77C014B8366
:1011D00069837A830E94F1071FB7F8944B81698174
:1011E0007A81C7010E944F08882329F0C7010E9415
:1011F000C90881E001C080E01FBF0F900F900F90E1
:10120000DF91CF911F91FF90EF900895FF920F9380
:101210001F93CF93DF9300D0CDB7DEB78C0122E0D0
:10122000AE014F5F5F4F63E00E94B706898187FF81
:1012300013C0C8010E949808D80114968C9182307E
:1012400021F4C8010E94D80807C0F80184818130C8
:1012500019F4C8010E94DD07898185FF03C0C80118
:101260000E947508898184FF03C0C8010E94950807
:10127000898183FF08C0D801ED91FC910190F08134
:10128000E02DC80109958A8183FF08C0D801ED913E
:10129000FC910280F381E02DC8010995298122FF8C
:1012A0000AC0F801EC5BFF4F808191810196918328
:1012B0008083F801148221FF2EC06BE4C8010E94D4
:1012C0004606F82EF2E3F81708F453C0D8011B962F
:1012D0008C91F81608F44DC0D8011B968C911B9781
:1012E0001B964C912F2D281B50E0445F5F4F400F01
:1012F000511F6FE7C8010E94B706F801EE5BFF4F70
:10130000208131812F5F3F4F31832083F801F386A5
:10131000148281E086AF898180FF1CC0F801E05C07
:10132000FF4F80819181019691838083C8010E9443
:10133000DD07C8010E94A608F8011482848181306B
:1013400049F065816460C8010E94500781E0D801BE
:1013500014968C938A8186FF19C066E2C8010E94A8
:101360004606F801EA5BFF4F8083C8010E94A60889
:101370000AC0F801E05CFF4F808191810196918362
:101380008083F8011482C8010E94DD070F900F903E
:10139000DF91CF911F910F91FF9008958091FC03F1
:1013A0009091FD03009711F00C9406090895809127
:1013B000FE039091FF03009711F00C940609089525
:1013C0008091000490910104009711F00C9406099B
:1013D0000895462F6AE30C947306462F6BE30C9432
:1013E0007306462F6CE30C947306462F6DE30C9442
:1013F000730667E40C94460668E40C94460669E4B8
:101400000C9446066AE40C944606462F21E04227D7
:10141000419563E40C9473060F931F93CF93DF936E
:1014200000D0CDB7DEB78C0160E170E080E090E0E5
:101430000E944F0D61E0D80116968C910E943E0CDF
:1014400061E0F80186810E94770CD80112968D9197
:101450009C911397DC01ED91FC910680F781E02DC2
:101460000995F80182819381DC01ED91FC9104845E
:10147000F585E02D60E00995F80182819381DC011A
:10148000ED91FC910284F385E02D61E00995F8016E
:1014900082819381DC01ED91FC910684F785E02D3A
:1014A00061E0099564E670E080E090E00E944F0DF5
:1014B000C8010E94AD0660E0C8010E944606F8011E
:1014C00080878750823008F0AFC08781811109C0C2
:1014D0001093FD030093FC0342E050E06EEC79E0D2
:1014E00016C0813049F41093FF030093FE0342E0DD
:1014F00050E067ED79E00BC0823009F095C01093A1
:1015000001040093000442E050E060EE79E00E94A4
:101510009B0BC8010E942508C8010E94DD0744E01A
:101520006DE7C8010E94730647E36EE7C8010E9499
:101530007306D80119964C9143704C6860E3C8015A
:101540000E94730648E862E3C8010E94730642E401
:1015500063E3C8010E94730668E0C8010E94D407D3
:101560008DE2898384ED8A8342E0BE016F5F7F4F05
:10157000C8010E94D80760E0C8010E94050A40E047
:101580006FE3C8010E94730660E0C8010E94E90988
:1015900060E0C8010E94ED0960E0C8010E94F10905
:1015A00060E0C8010E94F50942E16BE0C8010E94B9
:1015B000730645E16CE0C8010E94730647EB65E0E5
:1015C000C8010E94730640E466E0C8010E947306E9
:1015D00040E063E7C8010E94730640E064E7C80189
:1015E0000E94730643E565E7C8010E94730644E65E
:1015F00066E7C8010E94730640E067E7C8010E94E1
:10160000730640E56AE2C8010E947306C8010E94A1
:101610004D0763E070E0C8010E94A10763E0C801C4
:101620000E94640781E001C080E00F900F90DF917D
:10163000CF911F910F9108956EBD00000DB407FE6C
:10164000FDCF8EB508958CB580688CBD08958CB59E
:101650008F778CBD08958CB5611102C0806201C086
:101660008F7D8CBD08958CB5837F682B6CBD0895EC
:101670009CB5862F83709C7F892B8CBD8DB562FBBA
:10168000662760F98E7F862B8DBD08950C94510BD3
:101690000C94870B8AE292E09093030480930204F7
:1016A0000895CF93CFB7F89480910504811127C096
:1016B000E0E8F2E08491ECE6F2E09491E82FF0E0CB
:1016C000EE0FFF1FE256FD4FA591B4918C91892337
:1016D00021F461E08AE00E94770C61E08AE00E94D8
:1016E0003E0C8CB580618CBD8CB580648CBD61E096
:1016F0008DE00E943E0C61E08BE00E943E0C8091E8
:1017000005048F5F80930504CFBFCF9108959FB7E5
:10171000F89480910504882319F081508093050482
:1017200080910504811105C08CB58F7B8CBD109212
:1017300004049FBF08958230E8F4E82FF0E0EE0F34
:10174000FF1FEA5FFB4F71836083813041F080911E
:1017500069008C7F842B80936900E89A08958091BA
:101760006900440F551F440F551F837F842B8093BE
:101770006900E99A08951F920F920FB60F921124F3
:101780002F933F934F935F936F937F938F939F9389
:10179000AF93BF93EF93FF9380910604909107045A
:1017A000892B29F0E0910604F09107040995FF9137
:1017B000EF91BF91AF919F918F917F916F915F91C9
:1017C0004F913F912F910F900FBE0F901F90189542
:1017D0001F920F920FB60F9211242F933F934F93A6
:1017E0005F936F937F938F939F93AF93BF93EF9389
:1017F000FF938091080490910904892B29F0E091CE
:101800000804F09109040995FF91EF91BF91AF9100
:101810009F918F917F916F915F914F913F912F9108
:101820000F900FBE0F901F901895833081F028F411
:10183000813099F08230A1F008958730A9F0883086
:10184000B9F08430D1F4809180008F7D03C0809105
:1018500080008F7780938000089584B58F7702C0D1
:1018600084B58F7D84BD08958091B0008F7703C0CB
:101870008091B0008F7D8093B0000895CF93DF9367
:1018800090E0FC01EE59FD4F2491FC01EA58FD4F18
:101890008491882349F190E0880F991FFC01E2565A
:1018A000FD4FA591B4918C569D4FFC01C591D491EB
:1018B0009FB7611108C0F8948C91209582238C9376
:1018C000888182230AC0623051F4F8948C91322FBF
:1018D000309583238C938881822B888304C0F8946D
:1018E0008C91822B8C939FBFDF91CF9108950F93A2
:1018F0001F93CF93DF931F92CDB7DEB7282F30E031
:10190000F901E25BFD4F8491F901EE59FD4F14910D
:10191000F901EA58FD4F04910023C9F0882321F012
:1019200069830E94150C6981E02FF0E0EE0FFF1F24
:10193000EC56FD4FA591B4919FB7F8948C9161112D
:1019400003C01095812301C0812B8C939FBF0F9002
:10195000DF91CF911F910F910895CF93DF93282F9F
:1019600030E0F901E25BFD4F8491F901EE59FD4F42
:10197000D491F901EA58FD4FC491CC2391F0811123
:101980000E94150CEC2FF0E0EE0FFF1FE657FD4F05
:10199000A591B4912C912D2381E090E021F480E079
:1019A00002C080E090E0DF91CF9108951F920F92E6
:1019B0000FB60F9211242F933F938F939F93AF9362
:1019C000BF9380910B0490910C04A0910D04B091F1
:1019D0000E0430910A0423E0230F2D3720F40196E2
:1019E000A11DB11D05C026E8230F0296A11DB11D42
:1019F00020930A0480930B0490930C04A0930D048D
:101A0000B0930E0480910F0490911004A0911104E2
:101A1000B09112040196A11DB11D80930F04909303
:101A20001004A0931104B0931204BF91AF919F9141
:101A30008F913F912F910F900FBE0F901F9018958F
:101A40002FB7F89460910B0470910C0480910D04F1
:101A500090910E042FBF08953FB7F89480910F0422
:101A600090911004A0911104B091120426B5A89B86
:101A700005C02F3F19F00196A11DB11D3FBF66277C
:101A8000782F892F9A2F620F711D811D911D42E0C1
:101A9000660F771F881F991F4A95D1F70895CF9237
:101AA000DF92EF92FF92CF93DF936B017C010E9454
:101AB0002C0DEB01C114D104E104F10489F00E9462
:101AC0002F110E942C0D6C1B7D0B683E734090F310
:101AD00081E0C81AD108E108F108C851DC4FEACF0B
:101AE000DF91CF91FF90EF90DF90CF9008957894A1
:101AF00084B5826084BD84B5816084BD85B5826013
:101B000085BD85B5816085BDEEE6F0E080818160B0
:101B10008083E1E8F0E010828081826080838081B0
:101B200081608083E0E8F0E0808181608083E1EB88
:101B3000F0E0808184608083E0EBF0E08081816070
:101B40008083EAE7F0E08081846080838081826026
:101B5000808380818160808380818068808310920F
:101B6000C1000895CF92DF92EF92FF920F931F93DF
:101B7000CF93DF936C017A01EB01E60EF71E00E0D4
:101B800010E0CE15DF0561F06991D601ED91FC9171
:101B90000190F081E02DC6010995080F191FF1CFC2
:101BA000C801DF91CF911F910F91FF90EF90DF90CF
:101BB000CF9008956115710581F0DB010D90002033
:101BC000E9F7AD0141505109461B570BDC01ED917E
:101BD000FC910280F381E02D099480E090E008956B
:101BE0000C94DA0DDC01ED91FC910190F081E02D77
:101BF00009946AE372E00C94DA0D0F931F93CF936C
:101C0000DF93EC010E94DA0D8C01CE010E94F90DE8
:101C1000800F911FDF91CF911F910F9108958F92A7
:101C20009F92AF92BF92CF92DF92EF92FF920F936B
:101C30001F93CF93DF93CDB7DEB7A1970FB6F8947C
:101C4000DEBF0FBECDBF7C01C42EE52FCB01D22E4F
:101C500019A221E02D1510F02AE0D22E8E010F5D81
:101C60001F4F8D2C912CA12CB12C6C2D7E2FA501FA
:101C700094010E9430118C2DD29E801911240150A4
:101C800011098A3014F4805D01C0895CF8018083F9
:101C9000211531054105510521F0C22EE32FCA015E
:101CA000E4CFB801C7010E94DA0DA1960FB6F894EF
:101CB000DEBF0FBECDBFDF91CF911F910F91FF907F
:101CC000EF90DF90CF90BF90AF909F908F9008954E
:101CD000CF92DF92EF92FF920F931F93CF93DF93F8
:101CE000EC016A017B012115310579F4E881F98164
:101CF0000190F081E02D642FDF91CF911F910F9122
:101D0000FF90EF90DF90CF9009942A303105E9F4ED
:101D100077FF1AC06DE20E94F20D8C01442755270F
:101D2000BA014C195D096E097F092AE0CE010E94B3
:101D30000F0E800F911FDF91CF911F910F91FF9098
:101D4000EF90DF90CF9008952AE0B701A601CE0171
:101D5000DF91CF911F910F91FF90EF90DF90CF9087
:101D60000C940F0E0F931F93CF93DF93EC019A0106
:101D7000AB01662757FD6095762F0E94680E8C0197
:101D8000CE010E94F90D800F911FDF91CF911F911D
:101D90000F9108952115310541F4DC01ED91FC917D
:101DA0000190F081E02D642F09940C940F0E9A019C
:101DB000462F50E060E070E00C94CA0E0F931F9322
:101DC000CF93DF93EC019A01462F50E060E070E082
:101DD0000E94CA0E8C01CE010E94F90D800F911F46
:101DE000DF91CF911F910F9108951F920F920FB61F
:101DF0000F9211242F938F939F93EF93FF93E09172
:101E00002304F09124048081E0912904F0912A04B4
:101E100082FD12C0908180912C048F5F8F7320917E
:101E20002D04821751F0E0912C04F0E0ED5EFB4FA1
:101E3000958F80932C0401C08081FF91EF919F9139
:101E40008F912F910F900FBE0F901F9018951F929A
:101E50000F920FB60F9211242F933F934F935F93DE
:101E60006F937F938F939F93AF93BF93EF93FF9362
:101E700083E194E00E94D50FFF91EF91BF91AF9164
:101E80009F918F917F916F915F914F913F912F9192
:101E90000F900FBE0F901F90189583E194E00E9461
:101EA0009A0F21E0892B09F420E0822F08951092E7
:101EB00016041092150488EE93E0A0E0B0E0809341
:101EC000170490931804A0931904B0931A048DE496
:101ED00092E0909314048093130485EC90E0909327
:101EE000200480931F0484EC90E09093220480935C
:101EF000210480EC90E0909324048093230481ECEF
:101F000090E0909326048093250482EC90E09093D7
:101F100028048093270486EC90E090932A04809311
:101F2000290410922C0410922D0410922E04109269
:101F30002F040895FC01818D228D90E0805C9F4FDD
:101F4000821B91098F7399270895FC01918D828DD1
:101F5000981731F0828DE80FF11D858D90E008957E
:101F60008FEF9FEF0895FC01918D828D981761F09E
:101F7000828DDF01A80FB11D5D968C91928D9F5FC0
:101F80009F73928F90E008958FEF9FEF08958DE4F7
:101F90009FE0892B49F080E090E0892B29F00E9496
:101FA0004D0F81110C9400000895FC01848DDF0118
:101FB000A80FB11DA35ABF4F2C91848D90E00196BC
:101FC0008F739927848FA689B7892C93A089B189AB
:101FD0008C9180648C93938D848D981306C00288B5
:101FE000F389E02D80818F7D80830895CF93DF93E7
:101FF000EC01888D8823C9F0EA89FB89808185FD01
:1020000005C0A889B9898C9186FD0FC00FB607FC61
:10201000F5CF808185FFF2CFA889B9898C9185FFA2
:10202000EDCFCE010E94D50FE7CFDF91CF9108957C
:10203000CF92DF92FF920F931F93CF93DF931F9264
:10204000CDB7DEB76C0181E0D60158968C935897D6
:102050005B969C915B975C968C915C97981307C0FC
:102060005096ED91FC915197808185FD2EC0F6012F
:10207000038D10E00F5F1F4F0F731127F02EF60135
:10208000848DF81211C00FB607FCF9CFD601509617
:10209000ED91FC915197808185FFF1CFC601698355
:1020A0000E94D50F6981EBCF838DE80FF11DE35AB4
:1020B000FF4F6083D6015B960C935B975296ED9130
:1020C000FC915397808180620CC0D6015696ED91A9
:1020D000FC91579760835096ED91FC9151978081C8
:1020E0008064808381E090E00F90DF91CF911F9119
:1020F0000F91FF90DF90CF900895BF92CF92DF9223
:10210000EF92FF92CF93DF93EC016A017B01B22E35
:10211000E889F98982E08083411581EE58076105DD
:102120007105A1F060E079E08DE390E0A7019601F0
:102130000E943011215031094109510956954795A6
:1021400037952795211580E1380798F0E889F989B6
:10215000108260E874E88EE190E0A70196010E9489
:10216000301121503109410951095695479537954C
:102170002795EC85FD853083EE85FF852083188EBD
:10218000EC89FD89B082EA89FB8980818061808346
:10219000EA89FB89808188608083EA89FB89808164
:1021A00080688083EA89FB8980818F7D8083DF91CD
:1021B000CF91FF90EF90DF90CF90BF90089508955A
:1021C0000E94770D0E94DF100E94B401C7ECDFE08F
:1021D0000E9407022097E1F30E94C70FF9CFCF9327
:1021E000DF9300D000D0CDB7DEB79B01AC01611505
:1021F00071058105910569F069833A834B835C839E
:102200000E94E01129813A814B815C810E94521128
:1022100003C060E070E0CB010F900F900F900F9023
:10222000DF91CF910895CF92DF92EF92FF926B01F1
:102230007C01621773078407950764F4CA01B9012A
:102240006C197D098E099F090E94EF106C0D7D1D90
:102250008E1D9F1DFF90EF90DF90CF900895089501
:10226000A1E21A2EAA1BBB1BFD010DC0AA1FBB1F9A
:10227000EE1FFF1FA217B307E407F50720F0A21B0C
:10228000B30BE40BF50B661F771F881F991F1A9479
:1022900069F760957095809590959B01AC01BD01A3
:1022A000CF010895052E97FB1EF400940E9469113A
:1022B00057FD07D00E94301107FC03D04EF40C9458
:1022C000691150954095309521953F4F4F4F5F4F85
:1022D000089590958095709561957F4F8F4F9F4F92
:1022E00008950E948211A59F900DB49F900DA49F08
:1022F000800D911D11240895EE0FFF1F0590F4919C
:10230000E02D0994A29FB001B39FC001A39F700D5F
:10231000811D1124911DB29F700D811D1124911DED
:1023200008958F929F92AF92BF92CF92DF92EF92D9
:10233000FF92CF93DF93EC01688179818A819B8141
:10234000611571058105910521F464E279ED8BE554
:1023500097E02DE133EF41E050E00E945211490136
:102360005A019B01AC01A7EAB1E40E9471116B0113
:102370007C01ACEEB4EFA50194010E940312C60EDD
:10238000D71EE81EF91EF7FE06C081E0C81AD10864
:10239000E10880E8F80AC882D982EA82FB82C70194
:1023A000B6019F77DF91CF91FF90EF90DF90CF90B4
:1023B000BF90AF909F908F9008950E9491110895C3
:1023C00080E091E00E949111089560930001709364
:1023D000010180930201909303010895FB01DC0148
:1023E00002C005900D9241505040D8F70895FB016E
:1023F000DC0102C001900D9241505040D8F7089581
:10240000B7FF0C9471110E947111821B930B0895F8
:04241000F894FFCF6E
:1024140001000000040000000000040004010500A5
:102424000000000005000501060000000000060091
:10243400060107000000070000000000080000007B
:10244400000008000801576F726B696E67203A201C
:102454000070756C7365203A200077656674203AC5
:1024640020005374617274696E6720616E742E2E3D
:102474002E00696E697420737563636573732066D7
:102484006F7220616E7400696E6974206661696C94
:10249400656420666F7220616E7400676F742072C9
:1024A40065706C792066726F6D203A203078004E2A
:1024B4006F207265706C792C2069732072663232D9
:1024C4005F72656C6961626C655F64617461677297
:1024D400616D5F7365727665722072756E6E696E7A
:1024E400673F0073656E64746F5761697420666139
:1024F400696C65640073656E64696E672070756CE1
:10250400736520636F756E74203A20006572726F74
:1025140072203A20006669786564203A2000000041
:1025240000002506260600000000250626060000F9
:10253400000025062606000000001C0B230B270BB9
:10254400460B480B2B0B330B380B0D0A006E616ED8
:1025540000696E66006F766600000000001810B215
:0A2564000D9A0FB30FA50FF60F003C
:00000001FF
